:020000040800F2
:100000004004002001010008EF020008E702000898
:10001000EB020008490100089708000800000000F2
:10002000000000000000000000000000750400084F
:100030004D010008000000007D0300086105000874
:100040001B0100081B0100081B0100081B01000820
:100050001B0100081B0100081B0100081B01000810
:100060001B0100081B0100081B0100081B01000800
:100070001B0100081B0100081B0100081B010008F0
:100080001B0100081B0100081B0100081B010008E0
:100090001B0100081B0100081B0100081B010008D0
:1000A0001B0100081B0100081B0100081B010008C0
:1000B0001B0100081B0100081B0100081B010008B0
:1000C0001B0100081B0100081B0100081B010008A0
:1000D0001B010008C5050008410600081B010008B7
:1000E0001B0100081B0100081B010008DFF80CD0F1
:1000F00000F018F800480047ED0800084004002010
:100100000648804706480047FEE7FEE7FEE7FEE7B1
:10011000FEE7FEE7FEE7FEE7FEE7FEE7650500080F
:10012000ED000008064C074D06E0E06840F00103D2
:1001300094E8070098471034AC42F6D3FFF7DAFF93
:10014000080900082809000800BFFEE77047000002
:1001500010B500F0CDF80121052000F011F90121C2
:10016000880300F00DF94FF4007015490880032052
:1001700088701820C870134800F02AF84FF4806087
:100180000F4908800420C8700E4800F021F84FF491
:10019000E1300D49086000208880C880088188818E
:1001A0000C204881094800F001FB012240F2255152
:1001B000064800F0D5FA0121044800F08EFA10BD7F
:1001C00000000020000801403000002000380140FD
:1001D0002DE9F041024600250026002000230024DE
:1001E000002791F803C00CF00F0591F803C00CF044
:1001F000100CBCF1000F03D091F802C04CEA0505C9
:1002000091F800C0BCF1000F31D0146800202BE041
:100210004FF0010C0CFA00F3B1F800C00CEA030631
:100220009E4220D183004FF00F0C0CFA03F7BC4321
:1002300005FA03FC4CEA040491F803C0BCF1280F52
:1002400006D14FF0010C0CFA00FCC2F814C00AE011
:1002500091F803C0BCF1480F05D14FF0010C0CFA26
:1002600000FCC2F810C0401C0828D1D31460B1F8BB
:1002700000C0BCF1FF0F34DD546800202EE000F117
:10028000080C4FF0010808FA0CF3B1F800C00CEAB2
:1002900003069E4221D183004FF00F0C0CFA03F7A6
:1002A000BC4305FA03FC4CEA040491F803C0BCF11A
:1002B000280F05D100F1080C08FA0CF8C2F81480D8
:1002C00091F803C0BCF1480F07D100F1080C4FF0C2
:1002D000010808FA0CF8C2F81080401C0828CED398
:1002E0005460BDE8F08100BFFEE700BFFEE7704745
:1002F00010B5252004490870002088700120C870BE
:10030000084600F003F810BD0400002070B500217D
:1003100000230F22C47804B3154C246804F4E0646D
:10032000C4F5E064210AC1F10403CA40447804FA28
:1003300003F184781440214309010E4C0678A1553D
:10034000047804F01F050124AC4005786D11AD0060
:1003500005F1E025C5F8004109E0047804F01F0527
:100360000124AC40044D0678761145F8264070BD56
:100370000CED00E000E400E080E100E070470000E8
:1003800029B1064A92690243044B9A6104E0034A88
:1003900092698243014B9A6170470000001002404D
:1003A00030B500210022002400232D4D6D6805F09A
:1003B0000C0121B1042905D0082923D105E0294DDC
:1003C000056022E0274D05601FE0254D6D6805F4AE
:1003D0007012234D6D6805F48034022505EB9242BE
:1003E0001CB9214D554305600BE01D4D6D6805F4AA
:1003F00000351DB11C4D5543056002E0194D5543B4
:10040000056002E0174D056000BF00BF144D6D6828
:1004100005F0F0010909154D6B5C0568DD4045608C
:100420000F4D6D6805F4E061090A104D6B5C45687D
:10043000DD4085600A4D6D6805F46051C90A0B4DB9
:100440006B5C4568DD40C560054D6D6805F4404155
:10045000890B074D6B5CC568B5FBF3F5056130BDD5
:100460000010024000127A0000093D001C0000202C
:100470002C000020704710B500F002F810BD0000FD
:100480000CB50020019000903348006840F48030A3
:100490003149086000BF3048006800F40030009027
:1004A0000198401C0190009818B90198B0F5A06F10
:1004B000F1D12948006800F4003010B1012000900B
:1004C00001E0002000900098012843D123480068F3
:1004D00040F01000214908600846006820F0030041
:1004E00008600846006840F0020008601A4840684A
:1004F000194948600846406848600846406840F42A
:10050000806048600846406820F47C1048600846D7
:10051000406840F4E81048600846006840F0807089
:10052000086000BF0C48006800F000700028F9D097
:100530000948406820F003000749486008464068C1
:1005400040F00200486000BF0348406800F00C0023
:100550000828F9D10CBD0000001002400020024024
:100560007047000010B51348006840F001001149C1
:10057000086008464068104908400E49486008462F
:1005800000680E4908400B4908600846006820F4DE
:10059000802008600846406820F4FE0048604FF460
:1005A0001F008860FFF767FF4FF000600449086094
:1005B00010BD0000001002400000FFF8FFFFF6FE33
:1005C00008ED00E010B540F225511A4800F09EF801
:1005D00078B340F22551174800F070F816480068CB
:1005E000012812DA134800F04DF914490880084632
:1005F00000884FF6FF7101EA0020104908800E487C
:100600000068401C0C49086013E00B480068002893
:100610000FDD084800F036F9084909880843074902
:10062000088008460188034800F031F9002002499B
:10063000086010BD003801401000002018000020A4
:1006400010B540F225511A4800F060F878B340F236
:100650002551174800F032F816480068012812DAD0
:10066000134800F00FF914490880084600884FF637
:10067000FF7101EA0020104908800E480068401C04
:100680000C49086013E00B48006800280FDD08489B
:1006900000F0F8F808490988084307490880084627
:1006A0000188034800F0F3F800200249086010BDFB
:1006B00000440040140000201A00002010B5002261
:1006C000002340F66A14A14200D100BF0A1201249F
:1006D0009440A3B2DC43048010BD21B1828942F46E
:1006E0000052828104E082894DF6FF731A408281B4
:1006F000704702460020B1F5007F00D100BF13888B
:100700000B400BB1012000E00020704770B502469D
:10071000002400230025002040F66A16B14200D1D3
:1007200000BFC1F3421501F01F03012606FA03F3CF
:10073000012D02D19689334006E0022D02D1168A9E
:10074000334001E0968A33400C12012606FA04F485
:100750001688344013B10CB1012000E0002070BDB8
:10076000F0B50346002400260025002040F66A1755
:10077000B94200D100BF1846C1F3421401F01F0670
:10078000012707FA06F5012C01D10C3004E0022CF8
:1007900001D1103000E014301AB107682F43076010
:1007A00002E00768AF430760F0BD00002DE9F047A5
:1007B00086B005460E460024A24600BFA14600278B
:1007C000B08900B100BF2F462C8A4CF6FF70044060
:1007D000F08804432C82AC894EF6F3100440B088B4
:1007E00031890843718908430443AC81AC8A4FF6D0
:1007F000FF400440B0890443AC8201A8FFF7D0FD5C
:100800001F48874202D1DDF810A001E0DDF80CA0FE
:10081000A88900F4004040B10AEBCA0000EB0A10BE
:1008200031684900B0FBF1F807E00AEBCA0000EBC1
:100830000A1031688900B0FBF1F86420B8FBF0F0D1
:1008400004012009642101FB1089A88900F40040FB
:1008500040B1322000EBC900B0FBF1F000F007001E
:10086000044308E0322000EB09106421B0FBF1F0F2
:1008700000F00F0004432C8106B0BDE8F0870000B3
:100880000038014001468888C0F308007047C1F372
:1008900008028280704700BFFEE702E008C8121F0E
:1008A00008C1002AFAD170477047002001E001C159
:1008B000121F002AFBD1704770B504460D46294629
:1008C0002046FFF7E4FF00BF80212046FFF711FF1D
:1008D0000028F9D070BD014600BF4FF47A7201FBC9
:1008E00002F000E0401E0028FCD17047FFF730FC0A
:1008F00007E051210348FFF7DFFF4CF25030FFF7CC
:10090000EAFFF6E70038014028090008000000204F
:10091000300000009A080008580900083000002044
:1009200010040000AA0800080000000000000000F9
:1009300000000000000000000000000000000000B7
:100940000000000000000000010203040102030493
:0809500006070809020406086D
:04000005080000ED02
:00000001FF
